:020000041000EA
:1000000000B5324B212058609868022188439860DF
:10001000D860186158612E4B002199600221596106
:100020000121F02299502B49196001219960352056
:1000300000F044F80222904214D00621196600F024
:1000400034F8196E01211966002018661A6600F04E
:100050002CF8196E196E196E052000F02FF8012189
:100060000842F9D1002199601B49196000215960AB
:100070001A491B48016001219960EB211966A021F2
:10008000196600F012F800219960164914480160C1
:100090000121996001BC002800D000471248134993
:1000A000086003C880F30888084703B5996A0420EC
:1000B0000142FBD001200142F8D103BD02B5186610
:1000C0001866FFF7F2FF186E186E02BD00000240BE
:1000D000000000180000070000035F00212200005C
:1000E000F4000018222000A00001001008ED00E03C
:1000F00000000000000000000000000074B24E7A12
:1001000000200420F7010010C3010010C5010010F9
:10011000C1010010C1010010C1010010C101001097
:10012000C1010010C1010010C1010010C701001081
:10013000C1010010C1010010C9010010CB01001065
:10014000CD010010CD010010CD010010CD01001037
:10015000CD010010CD010010CD010010CD01001027
:10016000CD010010CD010010CD010010CD01001017
:10017000CD010010CD010010CD010010CD01001007
:10018000CD010010CD010010CD010010CD010010F7
:10019000CD010010CD010010CD010010CD010010E7
:1001A000CD010010CD010010CD010010CD010010D7
:1001B000CD010010CD010010CD010010CD010010C7
:1001C00000BE00BE00BE00BE00BE00BE00F051F882
:1001D000103800BEF2EB8871E0020010040300103A
:1001E0003402001090A31AE700202449086006C8D2
:1001F00081F30888104722480068002835D10DA4F3
:100200000ECC002902D000F012F8F9E71D491E4A71
:10021000002000E001C19142FCD11C4988471C49E3
:1002200088471C49884700BEFDE701C901C29A42C0
:10023000FBD3704704030010C0000020D8840020C6
:100240001C870010E0840020D4910020109400103E
:10025000000004200000042010940010001004206E
:10026000001004200000000070470B4800F018F850
:100270000047EFF30580C0B27047000008ED00E0D2
:10028000000000D0D891002094980020714D0020EB
:10029000710B0020614E0020575600000000000046
:1002A00001B40248844601BC604700BF5D6C002079
:1002B00006005250ABB36053888C002006005250A9
:1002C000861C0302988C0020060052505422A29DE6
:1002D000A88C002005005250DE65F46810940010D0
:1002E000848800208C880020D4020010C8020010EE
:1002F000BC020010B48C0020B0020010C08C0020A2
:04030000CC8C002081
:10030400F8B5C04610B5064C2378002B07D1054B31
:10031400002B02D0044800E000BF0123237010BD6D
:10032400D894002000000000D8840020044B10B5AD
:10033400002B03D00349044800E000BF10BDC046B1
:1003440000000000DC940020D8840020F0B545466D
:10035400DE4657464E46E0B5954D87B0AB69DB06A1
:100364001AD4944B10249846934F944E2200AB69B0
:100374001A401C42FAD129683B88C9B2092B58D8C3
:1003840042469B00D3589F462C2969D033880133B9
:100394003380AB691C42E9D007B0F0BCBB46B2461F
:1003A400A946A046F0BD2C29F0D108233B800023A8
:1003B40033803AE02C29E9D107233B8000233380A2
:1003C40033E02C29E2D106233B80002333802CE048
:1003D4002C29DBD105233B800023338025E02C2905
:1003E400D4D104233B80002333801EE02C2932D057
:1003F400734B197033880133338016E02C2925D0D0
:100404003388704AD154013333800EE033886E4A06
:10041400D25C8A4210D00023338006E02C2924D0F9
:1004240033886A4AD15401333380AB691C429DD06E
:10043400B2E73A803280F8E701339BB23380072B6E
:10044400F3D1063B3B8000233380EEE702233B805D
:1004540000233380E9E703233B8000233380E4E770
:1004640009233B8000233380DFE70A233B800023FA
:100474003380574B00229B5E432B00D18AE020211E
:10048400544A93691942FCD1432313604C4B1B78A3
:10049400412BCAD1504B01931B78002BC5D149483D
:1004A40003789A009B1842785B009B188278DBB231
:1004B40091005218C178520010395218D2B20092E9
:1004C400017940798A009446614449000918CAB206
:1004D400110010399246CAB21900103993460E29F8
:1004E40060D91F3BDBB23948017930398A00944620
:1004F400427961449446F422D20091464900CC44A6
:10050400614402AA1180817830398A009446C27805
:10051400614494463022524291464900CC4461449D
:1005240002AA91700178407849448A009446614453
:100534004900484402AA0918D170012153711300DB
:100544001171009A9A715A46DA718023234A1B0268
:100554001360234A1360234A180091688843FBD12F
:1005640007F088FE02A807F0A1FE5B463B2B1CD0D7
:1005740053460F3B5BB2012204A852424280828060
:10058400194902808271C37107F008FF0123019A9F
:1005940013704AE70F4A0C3993691942FCD10D23B1
:1005A40013606CE7073BDBB29DE70023E3E7C0463B
:1005B40000800340948700207C9800207A980020D3
:1005C4008C980020909700207C8800208097002041
:1005D40018980020004003408A98002000E0004062
:1005E40000F0004000C00040AD03002000B583B01F
:1005F400684607F0B1FE6B4606229B5E002B05D1D0
:100604000D4A13700D4B5B7C012B11D06B46DB79CB
:100614000133DBB21A003C3A511E8A415242134064
:10062400074A53618022074B52051A6003B000BD8C
:10063400054A1370EAE7C0468A9800208096002095
:1006440000C0054014E005408898002010B5044C13
:1006540007F072FF0028FBD1200002F09DFFF7E7AE
:1006640070960020F0B5DE4657464E4645460122B8
:100674008B498C4B8C46E0B51A608B4A83B0936AE5
:1006840068466344136107F067FE884A937C012B34
:1006940017D06B4605255D571623D356AB4221D0A0
:1006A400834B1C78012C2FD0043C012C02D805224A
:1006B400804B1A7003B0F0BCBB46B246A946A046B4
:1006C400F0BD694605254D5713215156A942E3D182
:1006D40069460620085E1424115F8842DCD17649FD
:1006E4000B70D9E76B46062159561723D356994206
:1006F400D6D16B46072159561823D3569942CFD1E8
:1007040001216E4B1970CBE76B4B1F78002FD1D1B1
:100714006B4B6C4E9846316819604146B3888B80A8
:10072400137C022B5ED007D8002B33D00422664BF7
:100734001C70664B1A70BDE7032B2BD10A212800CD
:1007440006F0DEFB0A213070280006F0D9FB0625EE
:100754006B4671705D570A21280006F0D1FB0A210F
:10076400B070280006F0CCFB07256B46F1705D578E
:100774000A21280006F0C4FB0A213071280006F083
:10078400BFFB0020717107F0CDFE4F4B1C704F4B27
:100794001F708FE70A21280006F0B2FB0A2130708F
:1007A400280006F0ADFB06246B4671701C570A2125
:1007B400200006F0A5FB0A21B070200006F0A0FB83
:1007C40007246B46F1701C570A21200006F098FBA1
:1007D4000A213071200006F093FB0020717107F0AC
:1007E400A1FE67E70A21280006F08AFBC3B2337032
:1007F40028000A21994606F083FBCBB273709A460F
:1008040006246B461C570A21200006F079FBC7B268
:100814000A212000B77006F073FB6B46CDB2F57069
:10082400DB790A215BB218009B4606F069FBC4B26F
:100834000A215846347106F063FB42461278CBB263
:1008440073714A4502D0484620303070424652788F
:10085400524502D051462031717042469278BA42D4
:1008640001D02037B7704246D278AA4201D0203551
:10087400F57042461279A24201D0203434714246C6
:1008840052799A4201D02033737101220E4B002019
:100894001A700E4B06321A7007F044FE0AE7C0467F
:1008A4003F420F0034700540004005408096002010
:1008B4008F9800207F980020869800208798002039
:1008C400F497002070960020899800208B980020CF
:1008D400F0B5D6464F464646C0B5F64C8CB00A2015
:1008E40003F0FEFF04F0DCFF01220121F24B00942F
:1008F400052004F0F5FB00220221EF4B00940420B4
:1009040004F0EEFBED4B0322022103AD009309201A
:10091400E94B04F0E5FB2B00E94C602706CC06C349
:1009240007F0A8FC280007F0C1FC05A8030006CCCA
:1009340006C3E44907F032FD9621E34C0901200087
:1009440003F066FC02210C2003F0BCFB02210D2005
:1009540003F0B8FBE1212000490203F0C9FCC022E6
:10096400236B120213409046D84A102613606E225D
:10097400E36A91467B401340D54A96211360E36AAB
:10098400D44D3340136000238901A36328009A46A1
:1009940003F03EFC0221152003F094FB962128006D
:1009A400890103F0A5FC42462B6B15201340CA4A6B
:1009B400CA491360EB6A5F404B461F40C84B1F6037
:1009C400EA6A16401E605023AB636A6B183B1340FF
:1009D400C44A07AE136004F097FD0021152004F00B
:1009E4006DFD5246C04BC1491A80C14B30001A807C
:1009F400C04B1A6806F01EFA3178002919D0BE4B94
:100A0400300000255D5F002220230D26002A00D03F
:100A1400C0E18D4200D1C5E1A2691342FCD121603D
:100A2400027801300D3A51424A410178D2B200298C
:100A3400ECD11C2003F08AFBD024802324065B0520
:100A440063620120A36103F081FB032003F07EFBBA
:100A5400072003F07BFB052003F078FB0B2003F059
:100A640075FB092003F072FB0F2003F06FFB0E20CF
:100A740003F06CFB0223802063629C468021802269
:100A84008023082780262025890012020001DB012B
:100A9400676298466662656260626162626263620E
:100AA4006346A3614346A761A661A561A061A161F4
:100AB4001820A261A36103F049FB192003F046FB4F
:100AC4001A2003F043FB1B2003F040FB102003F02B
:100AD4003DFB162003F03AFB172003F037FB80267A
:100AE40080228023802780219B045204F6043F0542
:100AF40049026262636266626762A1628021C9031D
:100B0400A16280210904A162102062610121636154
:100B14000022A661A76103F0EDFA0022012116204C
:100B240003F0E8FA00220121172003F0E3FA20354C
:100B340064200021676103F0BBFE6420002166612C
:100B440003F0B6FE013D64200021A66103F0B0FE6F
:100B5400002DEDD10421002003F0B4FA0421022079
:100B640003F0B0FA0421042003F0ACFA04210620B7
:100B740003F0A8FA0421082003F0A4FA04210A20AF
:100B840003F0A0FAE122920094465C485C4E5D4D6D
:100B94005D4B066119686B885C4A63444B400121D4
:100BA4001B041B0C13600A0003689A43584B1A6019
:100BB400962292009446574B46621F68AB88564A69
:100BC40063447B401B041B0C13600A00534B1B68DB
:100BD4009A43534B1A60AF2292009446514B86635A
:100BE4001F68EB88504A63447B401B041B0C136052
:100BF4000A004E4B1B689A434D4B1A609622920092
:100C040094464C4BC6641F682B894B4A63447B4013
:100C14001B041B0C13600A00484B1B689A43484B87
:100C24001A60484B06661F686B89474A63447B40D9
:100C34001B041B0C13600A00444B1B689A43444B6F
:100C44001A60444B46671868AB89434A634443407F
:100C54001B041B0C1360414B1B689943404B1960E8
:100C640007F046FA1F211D2003F02CFA0022002170
:100C74001D2003F03FFA00211D2003F053FA394BE5
:100C840039491A68C0239B015340E022D201134022
:100C9400364A3748136007F047FA0121122003F05F
:100CA40011FA0121132003F00DFA0121142003F09D
:100CB40009FA5FE040597307001BB70098B70000BA
:100CC4006C880020AD0300200040034030500340F6
:100CD4002C50034000800340309003400D0100205D
:100CE4002C900340349003407A980020BC87002065
:100CF4007C98002074800040189800200000054073
:100D040030750000809600200C0005400C10054052
:100D14000010054020000540201005401400054047
:100D240014100540340005403410054028000540E7
:100D34002810054048000540481005403C00054087
:100D44003C1005405C0005405C1005405000054027
:100D540050100540700005407010054064000540C7
:100D64006410054000C0044020A1070000D00440E6
:100D740000C00340112003F0E9F980239B02636261
:100D8400636180235B0563610CB0E0BCBA46B14685
:100D9400A846F0BDA269134200D140E6A2691342FD
:100DA400F8D13CE6A2691342FCD1266034E6C04681
:100DB400F0B5DE464E4645465746E0B58FB0FFF7E0
:100DC40087FDD74CD74BD84E2360D84B0020A38047
:100DD4000123D749336004F097FB0121002004F07C
:100DE4006DFBD44AD44D9446AB6A012063442B6115
:100DF4000223D249336004F087FB0121012004F06F
:100E04005DFBCF4AAB6A94466344CE486B6107F0FE
:100E1400E3FB02ABD91C0122D02002F0BBFC02F0A0
:100E24000BFD0121F22002F0E5FC2721F42002F061
:100E3400E1FCA021F52002F0DDFC02F0A7FDC24B8D
:100E44009B46180003F030F95B461B78A52B11D0A4
:100E54005A46A52313700023594653805360936068
:100E6400D360BA4A58460A61C022D2024A610B765C
:100E740003F0F8F80122962501920022B44B009267
:100E84001B786D00072BFDD8B24A9B00D3589F46B0
:100E9400D0260122360673689146DB0301D400F0A4
:100EA400F8FED02601223606736891465B0201D40F
:100EB40000F09AFED02601223606736891461B0282
:100EC40001D400F01AFEA24B1B78DBE7D0270122E5
:100ED4003F067B689146DB0301D400F05FFFD02717
:100EE40001223F067B6891465B0201D400F027FF94
:100EF400D02601223606736891461B02E3D40A20E9
:100F040003F0EEFC012290464A4673680127DB0D8C
:100F14001A4206D016E00137BFB2962F01D101F074
:100F2400A0FA0A2003F0DCFC42467368DB0D1A4287
:100F3400F1D00A2F06D9884B1B785B005B445A8892
:100F44000A3A5A80D021012209064B68DB0D1A4265
:100F5400FBD0B8E7D02701223F067B689146DB032C
:100F640001D401F062F8D026012236067368914656
:100F74005B0201D401F009F8D02601223606736819
:100F840091461B029FD40A2003F0AAFC012290463A
:100F94004A4673680127DB0D1A4204D00FE001377B
:100FA400BFB2962F0BD00A2003F09AFC4246736816
:100FB400DB0D1A42F3D00A2F01D901F033FAD02104
:100FC400012209064B68DB0D1A42FBD07BE7D027D0
:100FD4003F067B680126DB0301D400F006FFD02620
:100FE40001223606736891465B0200D56BE70A203E
:100FF40003F076FC012290464A46736895279B0DC0
:101004001A4206D00DE0013FBFB2002F01D101F01A
:1010140068F90A2003F064FC424673689B0D1A4287
:10102400F1D0D021012209064B689B0D1A42FBD056
:1010340049E7FA20400003F053FC0026F2B2130201
:1010440010041343110603430B4300202360227151
:10105400627107F067FA96200136400003F040FC05
:101064000A2EEBD103A807F077F9062002AB185635
:10107400DB7901275BB2C01802AB5B7A00265BB256
:10108400C01802AB9B7A5BB2C01802ABDB7A5BB2CE
:10109400C01807F0C9FA11239846103B994626E078
:1010A400002323708B2E00DC83E26370B32E00DCFC
:1010B40066E24246A270DB2E00DC30E24A46E27071
:1010C40082225200964200DA30E22371AE4200D20C
:1010D40033E26371052003F003FC002007F022FAD9
:1010E400AA235B009F4200D172E201360137632ECE
:1010F400D6D807F0A3FA0A2105F002FF3031217097
:10110400132E00DD27E23B2EE4DD07F097FA0A21D7
:1011140005F0F6FE3031E1704F2EDBD93EE2C046D9
:10112400709600200A0A0A0A386005400A0A00007C
:101134002504002040420F0000400540ED2C002013
:10114400A08601000D0400208096002001010116F4
:101154008F980020C487002082980020D026012286
:10116400360673689146DB0301D400F0B8FED0263E
:1011740001223606736891465B0201D400F05AFEE0
:10118400D02301221B0698465B6891461B0200D5BA
:1011940099E60A2003F0A4FB43464A465B6801260D
:1011A400DB0D01271A4206D043E00136B6B2962E73
:1011B40001D101F04AF90A2003F092FB43463A00B8
:1011C4005B68DB0D1A401F42EFD00A2E31D95B4613
:1011D4001B7E01335BB23C2B00D100235A461626FA
:1011E400137696570A21300005F08AFE0A212070F2
:1011F400300005F085FE17265B4661709E570A2174
:10120400300005F07DFE0A21A070300005F078FE64
:1012140018265B46E1709E570A21300005F070FEE7
:101224000A212071300005F06BFE0020617107F087
:1012340079F9D021012209064B68DB0D1A42FBD053
:1012440041E603A807F088F8062002AB1856DB79BC
:1012540000265BB2C01802AB5B7A0F275BB2C018E2
:1012640002AB9B7A5BB2C01802ABDB7A5BB2C018EC
:1012740007F0DAF9012398467C33FF33994632E0CC
:1012840023783B4023704E4536DB63783B406370E4
:10129400E6235B009E4236DBA3783B40A3708723A2
:1012A4009B009E4236DBE3783B40E3709B239B002C
:1012B4009E4236DB23793B402371AF239B009E4241
:1012C40036DB63790A203B40637103F009FB00209D
:1012D40007F028F9C3239B00984500D180E101233E
:1012E4009C460136E044AE42CAD207F0A7F90A216F
:1012F40005F006FE3031217007F0A0F90A2105F04F
:10130400FFFD3031617007F099F90A2105F0F8FD0D
:101314003031A17007F092F90A2105F0F1FD303166
:10132400E17007F08BF90A2105F0EAFD30312171F3
:1013340007F084F90A2105F0E3FD30310A206171D8
:1013440003F0CEFA002007F0EDF8C8E7D027012219
:101354003F067B689146DB0300D410E3D0270122CB
:101364003F067B6891465B0200D4BDE2D027012290
:101374003F067B6891461B0200D4DEE2BA4B1B7821
:101384009946002B00D1FCE1009B002B00D118E30F
:10139400B64B1B780093002B00D0FAE14B46009328
:1013A400B14B1B78002B00D12FE100230193B04BEC
:1013B4001B78002B00D086E51021AE4A93691942B0
:1013C400FCD11368DBB2242B00D07CE51022A94B9E
:1013D40099690A42FCD11B68DBB2472B00D072E545
:1013E4001022A44B99690A42FCD11B68DBB2502B32
:1013F40000D068E510229F4B99691142FCD11B680B
:10140400DBB2522B00D05EE510229A4B996911424F
:10141400FCD11B68DBB24D2B00D054E51022954B58
:1014240099691142FCD11B68DBB2432B00D04AE519
:101434001021904A906903000B400842FAD11268C7
:10144400D2B22C2A00D03EE51022944689498869FC
:101454006246070017401042F9D11C22086802AE08
:10146400B618F0540133142BF1D102AB0B329B1894
:101474001B78412B00D026E57F4A0A2690467F4BF5
:1014840018219B6A984402AB187F5B7F3038704305
:10149400C018273805F034FD202002AB9B7F02AA38
:1014A400303B7343D27F303A9B1802AA1218127849
:1014B4000130303A564302AA1218127802A8B6181C
:1014C400F6B23200303AD2B29146FA22D200828188
:1014D4000222FF32C281013AFF3A02744A468374FF
:1014E4004174C27405A806F0E1FE4B463B2B01D0C3
:1014F4002F3EF7B2012302AA5B42D38213836049D1
:1015040007A893829376D77606F048FF42465B4B52
:101514001A610123564A13705A4B1B78B2E407F040
:101524008DF80A2105F0ECFC3031E17007F086F803
:101534000A2105F0E5FC3031217107F07FF80A211A
:1015440005F0DEFC30310520617103F0C9F900209B
:1015540006F0E8FFC9E507F071F80A2105F0D0FCB0
:1015640030316170272E00DCCDE507F067F80A21E1
:1015740005F0C6FC3031A1703B2E00D8AAE5C4E5C5
:1015840007F05CF80A2105F0BBFC3031A17007F0CC
:1015940055F80A2105F0B4FC3031E17007F04EF83B
:1015A4000A2105F0ADFC30312171632E00D891E59C
:1015B400C3E707F043F80A2105F0A2FC303161705B
:1015C40007F03CF80A2105F09BFC3031A1709CE542
:1015D400FA20400003F084F901232A4A137053E4EB
:1015E400D0273F067B680126DB0300D4DCE2FA2027
:1015F400800003F075F9234B1B7843E400231B4A56
:101604001370194A1370013301931F4B1B78002B7D
:1016140000D1CCE603A806F09FFE062002AB1856C4
:10162400DB795BB2C01802AB5B7A5BB2C01802AB69
:101634009B7A5BB2C01802ABDB7A5BB2C01806F0CF
:10164400F3FF02ABDA7AD31D5BB23B2B01DD00F072
:1016540059FE02AAD372BE235B009A465033012777
:10166400002699465AE0C0468698002087980020B4
:101674008A98002000800340D012130000400540E7
:10168400AD0300208F9800208898002002AB5B7A7D
:101694000A215BB21800984605F032FC20705645CA
:1016A40045DB0A21404605F02BFC61704E4545DBC5
:1016B40002AB9B7A0A215BB21800984605F020FC25
:1016C4008723A0709B009E423FDB0A21404605F021
:1016D40017FC9B23E1709B009E423DDB02ABDB7A4F
:1016E4000A215BB21800984605F00AFCAF2320716A
:1016F4009B009E4237DB0A21404605F001FC0A208C
:10170400617103F0EDF8002006F00CFFC3239B0089
:101714009F4201D100F003FE01360137AE42B5D23B
:1017240006F08CFF0A2105F0EBFB3031217006F046
:1017340085FF0A2105F0E4FB3031617006F07EFF7D
:101744000A2105F0DDFB3031A17006F077FF0A2194
:1017540005F0D6FB3031E17006F070FF0A2105F088
:10176400CFFB3031217106F069FF0A2105F0C8FB77
:1017740030310A20617103F0B3F8002006F0D2FE84
:10178400CAE7D54B1B780093002B00D13DE700231B
:101794000093019B002B00D002E6013398460433EA
:1017A400FF3300260A279A4648E002AB5B7A0A21F7
:1017B4005BB21800994605F0A3FB20708B2E57DD11
:1017C4000A21484605F09CFB6170B32E01DC01F050
:1017D4004BFA02AB9B7A0A215BB21800994605F0DA
:1017E4008FFBA070DB2E01DC01F05AFA0A21484677
:1017F40005F086FBE170564501DA01F058FA02ABB8
:10180400DB7A0A215BB21800994605F079FB207156
:10181400AE424DDB0A21484605F072FB052061719A
:1018240003F05EF8002006F07DFEAA235B009845D5
:1018340000D1E3E601239C460136E04403A806F008
:101844008BFD632EB1D806F0F9FE0A2105F058FB92
:1018540030312170132E33DC6770A770E770277165
:101864006771052003F03CF8002006F05BFEE1E719
:1018740006F0E4FE0A2105F043FB3031617006F006
:10188400DDFE0A2105F03CFB3031A17006F0D6FEE6
:101894000A2105F035FB3031E1704F2EDFD906F017
:1018A400CDFE0A2105F02CFB30312171632ED7D9EE
:1018B40006F0C4FE0A2105F023FB30316171D0E744
:1018C40006F0BCFE0A2105F01BFB30316170272EA7
:1018D400C3DD06F0B3FE0A2105F012FB3031A1701E
:1018E4003B2ED3D8E770BAE70A2002F0F9FF0122B1
:1018F40090464A467B6895269B0D1A4206D00DE019
:10190400013EB6B2002E01D100F082FD0A2002F0A1
:10191400E7FF42467B689B0D1A42F1D0D021012299
:1019240009064B689B0D1A42FBD0D02701223F06C3
:101934007B6891461B0200D520E50A2002F0D0FF07
:10194400012290464A467B689526DB0D1A4206D052
:101954000DE0013EB6B2002E01D100F028FD0A20B0
:1019640002F0BEFF42467B68DB0D1A42F1D0D02163
:10197400012209064B68DB0D1A42FBD0FEE40A2063
:1019840002F0AEFF012290464A467B6895261B0C66
:101994001A4206D00DE0013EB6B2002E01D100F08D
:1019A40012FD0A2002F09CFF42467B681B0C1A427F
:1019B400F1D0D021012209064B681B0C1A42FBD03E
:1019C400CCE482235B000127002698461FE00A230B
:1019D40023708B2E00DC81E06370B32E6DDDA37069
:1019E400DB2E5BDDE37046455FDB2371AE4234D30F
:1019F4000A236371052002F073FF002006F092FDB4
:101A0400AA235B009F4200D1C2E401360137632E52
:101A1400DDD806F013FE0A2105F072FA3031217088
:101A2400132E28DC3B2EE5DD06F008FE0A2105F026
:101A340067FA3031E1704F2EDCD906F0FFFD0A2140
:101A440005F05EFA30312171632ECFD8052002F003
:101A540047FF002006F066FDD7E706F0EFFD0A21F8
:101A640005F04EFA30310520617102F039FF002093
:101A740006F058FDC9E706F0E1FD0A2105F040FA39
:101A840030316170272ECDDD06F0D8FD0A2105F036
:101A940037FA3031A1703B2EACD9C5E706F0CEFD44
:101AA4000A2105F02DFA3031E17006F0C7FD0A2154
:101AB40005F026FA3031217198E706F0BFFD0A21BE
:101AC40005F01EFA3031A17006F0B8FD0A2105F0C8
:101AD40017FA3031E170B0E78798002006F0AEFDC8
:101AE4000A2105F00DFA3031617006F0A7FD0A21D4
:101AF40005F006FA3031A17096E70A2002F0F0FEF4
:101B0400012290464A4673680127DB0D1A4206D02B
:101B140041E00137BFB2962F01D100F0DDFC0A206D
:101B240002F0DEFE42467368DB0D1A42F1D00A2F42
:101B340031D95B465B7D01335BB23C2B00D1002382
:101B44005A461326537596570A21300005F0D8F9E2
:101B54000A212070300005F0D3F914265B46617029
:101B64009E570A21300005F0CBF90A21A0703000FD
:101B740005F0C6F915265B46E1709E570A21300030
:101B840005F0BEF90A212071300005F0B9F90020F2
:101B9400617106F0C7FCD021012209064B68DB0DF8
:101BA4001A42FBD0FFF78FF90A2002F099FE7B68F6
:101BB4001B0C1E4210D101239526984604E0013ED9
:101BC400B6B2002E00D1BDE20A2002F089FE4246E0
:101BD4007B681B0C1A42F2D0D021012209064B6803
:101BE4001B0C1A42FBD002E50A2002F079FE012206
:101BF40090464A46736801279B0D1A4204D03FE081
:101C04000137BFB2962F3BD00A2002F069FE42464C
:101C140073689B0D1A42F3D00A2F31D95B461B7DA2
:101C240001335BB23C2B00D1BFE35A461326137534
:101C340096570A21300005F063F90A21207030001C
:101C440005F05EF914265B4661709E570A21300048
:101C540005F056F90A21A070300005F051F9152657
:101C64005B46E1709E570A21300005F049F90A21CC
:101C74002071300005F044F90020617106F052FC37
:101C8400D021012209064B689B0D1A42FBD0FFF7B5
:101C940011F90A2002F024FE012290464A46736894
:101CA40001271B0C1A4205D040E00137BFB2962F22
:101CB40000D11BE30A2002F013FE424673681B0C9A
:101CC4001A42F2D00A2F31D95B46DB7C01335BB276
:101CD400182B00D167E35A461326D37496570A216A
:101CE400300005F00DF90A212070300005F008F9E4
:101CF40014265B4661709E570A21300005F000F9F6
:101D04000A21A070300005F0FBF815265B46E1704F
:101D14009E570A21300005F0F3F80A2120713000A3
:101D240005F0EEF80020617106F0FCFBD0210122E1
:101D340009064B681B0C1A42FBD0FFF7B2F80A20C5
:101D440002F0CEFD012290464A467B6801269B0D97
:101D54001A4207D019E0434601339BB29846962BAA
:101D640000D107E30A2002F0BBFD32007B689B0D23
:101D74001A401E42EFD043460A2B06D9C84B1B78A3
:101D84005B005B445A880A325A80D021012209063A
:101D94004B689B0D1A42FBD0FFF7AAF80A2002F009
:101DA4009FFD012290464A467B6801261B0C1A427D
:101DB40007D011E0434601339BB29846962B00D1DD
:101DC40084E20A2002F08CFD7B681B0C1E42F1D0D9
:101DD40043460A2B00D9BEE2D021012209064B68F2
:101DE4001B0C1A42FBD0FFF77AF80A2002F078FDA8
:101DF4007B681B0C1E4214D101230126984604E083
:101E04000136B6B2962E00D107E20A2002F068FD30
:101E140042467B681B0C1A42F2D00A2E01D900F00C
:101E24000CFED021012209064B681B0C1A42FBD080
:101E3400FFF7D5F80A2002F053FD012290464A46E6
:101E4400736801279B0D1A4204D03FE00137BFB2EB
:101E5400962F3BD00A2002F043FD424673689B0D47
:101E64001A42F3D00A2F31D95B46DB7D01335BB2D2
:101E74003C2B00D16DE25A461626D37596570A219B
:101E8400300005F03DF80A212070300005F038F8E4
:101E940017265B4661709E570A21300005F030F822
:101EA4000A21A070300005F02BF818265B46E1707B
:101EB4009E570A21300005F023F80A2120713000D2
:101EC40005F01EF80020617106F02CFBD0210122E0
:101ED40009064B689B0D1A42FBD0FFF751F90A2003
:101EE40002F0FEFC012290464A46736801271B0C4F
:101EF4001A4205D040E00137BFB2962F00D180E1ED
:101F04000A2002F0EDFC424673681B0C1A42F2D020
:101F14000A2F31D95B469B7D01335BB2182B00D16C
:101F240015E25A461626937596570A21300004F096
:101F3400E7FF0A212070300004F0E2FF17265B4619
:101F440061709E570A21300004F0DAFF0A21A07064
:101F5400300004F0D5FF18265B46E1709E570A2135
:101F6400300004F0CDFF0A212071300004F0C8FFD6
:101F74000020617106F0D6FAD021012209064B68CF
:101F84001B0C1A42FBD0FFF7F2F80A2002F0A8FC5F
:101F9400012290464A46736801279B0D1A4204D0D9
:101FA4003AE00137BFB2962F36D00A2002F098FCEF
:101FB400424673689B0D1A42F3D00A2F2CD9384B32
:101FC4001B78052B25D837499A008A5897465B46D3
:101FD400DE890A21300004F0BBFF89B2092901D14E
:101FE40000F05AFE0136B6B25B466421DE81300051
:101FF40004F0AEFF0A21E070300004F0A9FF0A21CA
:10200400C0B204F0A5FF300021710A2104F0A0FF42
:102014006171002006F086FAD021012209064B687E
:102024009B0D1A42FBD0FEF7A7FF0A2002F058FCD2
:10203400012290464A467B6801261B0C1A4206D0B0
:1020440010E0434601339BB29846962B13D00A20E6
:1020540002F046FC7B681B0C1E42F2D043460A2B5E
:1020640000D961E1D021012209064B681B0C1A42F8
:10207400FBD0FEF778FF0C4B1E705B469B7C002B5D
:1020840001D10A4A1370584601F0ECFF074B1B7844
:10209400002BE7D082235B000127002698462AE024
:1020A40082980020E48700208F98002086980020E2
:1020B4000A2323708B2E00DC1DE36370B32E00DC37
:1020C4000AE3A370DB2E00DCF7E2E370464500DA96
:1020D400FAE22371AE4200D2CCE20A2363710520F6
:1020E40002F0FEFB002006F01DFAAA235B009F42CB
:1020F400B8D001360137632EDAD806F09FFA0A21E8
:1021040004F0FEFE30312170132E00DDC0E23B2EC0
:10211400E5DD06F093FA0A2104F0F2FE3031E170B5
:102124004F2EDCD906F08AFA0A2104F0E9FE303198
:102134002171632ECED8052002F0D2FB002006F0D8
:10214400F1F9D6E74246DE4B1A70DE4B1B78002BC2
:1021540000D141E582235B0001270026984628E050
:102164000A2323708B2E01DC00F06EFD6370B32E06
:1021740001DC00F059FDA370DB2E01DC00F044FD0E
:10218400E370464501DA00F046FD2371AE4201D208
:1021940000F013FD0A236371052002F0A1FB002067
:1021A40006F0C0F9AA235B009F4200D114E5013672
:1021B4000137632ED4D806F041FA0A2104F0A0FEB8
:1021C40030312170132E01DD00F006FD3B2EE3DDDE
:1021D40006F034FA0A2104F093FE3031E1704F2EF8
:1021E400DAD906F02BFA0A2104F08AFE3031217183
:1021F400632ECBD8052002F073FB002006F092F981
:10220400D5E7B04B1B78002B00D083E20123AC4A06
:102214005846137001F026FFAEE64246A84B1A70EA
:10222400A84B1B78002B00D1FBE582235B00012720
:102234000026984623E00A2323708B2E00DC49E312
:102244006370B32E00DC36E3A370DB2E00DC23E3E3
:10225400E370464500DA26E32371AE4200D2F8E289
:102264000A236371052002F03BFB002006F05AF9B3
:10227400AA235B009F4200D1D3E501360137632EC8
:10228400D9D806F0DBF90A2104F03AFE3031217086
:10229400132E00DDEBE23B2EE4DD06F0CFF90A213C
:1022A40004F02EFE3031E1704F2EDBD906F0C6F972
:1022B4000A2104F025FE30312171632ECDD805208A
:1022C40002F00EFB002006F02DF9D6E77C4B1E70C1
:1022D4007C4B1B78002B00D00BE3584601F0C2FE68
:1022E4007AE50323764A1370FEF79BFE4246744B4D
:1022F4001A70744B1B78002B00D01BE1584601F078
:10230400B1FE13E502AB353ADA729B7A01335BB264
:102314003B2B00DD01E102AA9372FFF79CF9002335
:10232400694A1370FFF743F8684B28201E7002F0C7
:10233400D7FA0522654B1A70654B1B78002B02D126
:10234400634B1A708EE6624A013B13708AE60023DF
:10235400E7E500238FE55D4B28201E7002F0C0FAEC
:1023640005225A4B1A705A4B1B78002B17D1584B25
:102374001A7031E5574B1B780133DBB2092B00D9B6
:1023840058E3544A1370534B00201B782370637036
:10239400A370E3702371637106F0C4F8F5E44C4A4A
:1023A400013B137018E5002395E400233DE4052365
:1023B400434A00201370474B2660A6801E7006F027
:1023C400B1F8FFF7D4FA04233D4A642113705B4645
:1023D4005A469B7C128AA3705B462280DF893800B0
:1023E40004F0B6FD0A21E070380004F0B1FD0A21C2
:1023F400C0B204F0ADFD380021710A2104F0A8FD3B
:102404000020617106F08EF8314B1E70FFF7D1FA8F
:1024140002232B4A00202660A680137006F082F85F
:10242400FFF77CFA4246294B28201A7002F058FA2A
:102434000523264A1370264B1B78052B00D1F4E2A2
:10244400234A01331370FEF7BAFD05231C4900200B
:102454000B70204B2260A2801A7006F063F8FEF71E
:10246400E8FE0623164A132613705B469E570A217C
:10247400300004F045FD0A212070300004F040FDD6
:1024840014265B4661709E570A21300004F038FD23
:102494000A21A070300004F033FD15265B46E1707C
:1024A4009E570A21300004F02BFD0A2120713000D0
:1024B40004F026FD0020617106F034F8FEF742FDB9
:1024C4008F98002086980020889800207F9800200C
:1024D400829800208E9800200722D54B16261A7069
:1024E4005B469E570A21300004F00AFD0A21207041
:1024F400300004F005FD17265B4661709E570A21E3
:10250400300004F0FDFC0A21A070300004F0F8FC57
:1025140018265B46E170FFF730FB002202AB9A728B
:102524005B7A01335BB2172B00DC9FE002AB5A727B
:10253400FFF791F80127002624E00B2323708B2E4C
:1025440000DC84E00B236370B32E71DD0B23A370D6
:10255400DB2E5EDD0B23E370F9339E4260DB0B233D
:102564002371AE4234D30B236371052002F0B8F912
:10257400002005F0D7FFAA235B009F4200D1BDE6EF
:1025840001360137632ED8D806F058F80A2104F032
:10259400B7FC30312170132E28DC3B2EE5DD06F02C
:1025A4004DF80A2104F0ACFC3031E1704F2EDCD937
:1025B40006F044F80A2104F0A3FC30312171632EA3
:1025C400CFD8052002F08CF9002005F0ABFFD7E747
:1025D40006F034F80A2104F093FC303105206171CF
:1025E40002F07EF9002005F09DFFC9E706F026F809
:1025F4000A2104F085FC30316170272ECDDD06F010
:102604001DF80A2104F07CFC3031A1703B2EACD9BA
:10261400C5E706F013F80A2104F072FC3031E170CA
:1026240006F00CF80A2104F06BFC3031217198E7B4
:1026340006F004F80A2104F063FC3031A17005F0BF
:10264400FDFF0A2104F05CFC3031E170B0E705F0D5
:10265400F5FF0A2104F054FC3031617005F0EEFFFF
:102664000A2104F04DFC3031A17098E702AA53729C
:10267400FEF7F1FF05F0E2FF0A2104F041FC3031DE
:102684000520617102F02CF9002005F04BFF30E5C4
:1026940005F0D4FF0A2104F033FC30316170272E99
:1026A40000DC34E505F0CAFF0A2104F029FC3031CE
:1026B400A1703B2E00D812E52BE505F0BFFF0A21DF
:1026C40004F01EFC3031E17005F0B8FF0A2104F07B
:1026D40017FC30312171FDE405F0B0FF0A2104F04C
:1026E4000FFC3031A17005F0A9FF0A2104F008FCA9
:1026F4003031E17016E505F0A1FF0A2104F000FC79
:102704003031617005F09AFF0A2104F0F9FB303191
:10271400A170FEE40127002624E00B2323708B2EF6
:1027240000DC87E00B236370B32E62DD0B23A37000
:10273400DB2E4FDD0B23E370F9339E4251DB0B2379
:102744002371AE4225D30B236371052002F0C8F830
:10275400002005F0E7FEAA235B009F4200D155E567
:1027640001360137632ED8D805F068FF0A2104F03A
:10277400C7FB30312170132E19DC3B2EE5DD05F04B
:102784005DFF0A2104F0BCFB3031E1704F2EDCD92F
:102794003DE005F053FF0A2104F0B2FB303105207F
:1027A400617102F09DF8002005F0BCFED8E705F049
:1027B40045FF0A2104F0A4FB30316170272EDCDDD3
:1027C40005F03CFF0A2104F09BFB3031A1703B2E45
:1027D400BBD9D4E705F032FF0A2104F091FB303174
:1027E400E17005F02BFF0A2104F08AFB30312171DE
:1027F400A7E705F023FF0A2104F082FB3031A17022
:1028040005F01CFF0A2104F07BFB3031E17005F078
:1028140015FF0A2104F074FB30312171632E90D826
:10282400052002F05DF8002005F07CFE98E7C04624
:102834008F98002005F002FF0A2104F061FB30317B
:10284400617005F0FBFE0A2104F05AFB3031A170DF
:1028540095E705F0F3FE0A2104F052FB3031052020
:10286400617102F03DF8002005F05CFE05E505F01D
:10287400E5FE0A2104F044FB30316170272E00DCB0
:1028840009E505F0DBFE0A2104F03AFB3031A170C2
:102894003B2E00D8E6E400E505F0D0FE0A2104F062
:1028A4002FFB3031E17005F0C9FE0A2104F028FB4A
:1028B40030312171D1E405F0C1FE0A2104F020FB7E
:1028C4003031A17005F0BAFE0A2104F019FB303151
:1028D400E170EBE405F0B2FE0A2104F011FB3031A3
:1028E400617005F0ABFE0A2104F00AFB3031A170DF
:1028F400D3E40127002624E00B2323708B2E00DC75
:1029040084E00B236370B32E71DD0B23A370DB2EE5
:102914005EDD0B23E370F9339E4260DB0B232371EE
:10292400AE4234D30B236371052001F0D9FF00209C
:1029340005F0F8FDAA235B009F4200D1CDE40136E7
:102944000137632ED8D805F079FE0A2104F0D8FAAD
:1029540030312170132E28DC3B2EE5DD05F06EFEB0
:102964000A2104F0CDFA3031E1704F2EDCD905F0A4
:1029740065FE0A2104F0C4FA30312171632ECFD8E8
:10298400052001F0ADFF002005F0CCFDD7E705F0F0
:1029940055FE0A2104F0B4FA30310520617101F0CA
:1029A4009FFF002005F0BEFDC9E705F047FE0A21A0
:1029B40004F0A6FA30316170272ECDDD05F03EFE1D
:1029C4000A2104F09DFA3031A1703B2EACD9C5E741
:1029D40005F034FE0A2104F093FA3031E17005F079
:1029E4002DFE0A2104F08CFA3031217198E705F0AC
:1029F40025FE0A2104F084FA3031A17005F01EFE90
:102A04000A2104F07DFA3031E170B0E705F016FEDA
:102A14000A2104F075FA3031617005F00FFE0A21C5
:102A240004F06EFA3031A17098E70023A44A1370C1
:102A3400FEF7C5FAA34B1A70A5E403A805F08CFCB5
:102A4400062002AB1856DB7900265BB2C01802AB35
:102A54005B7A0F275BB2C01802AB9B7A5BB2C018DB
:102A640002ABDB7A5BB2C01805F0DEFD01239846A9
:102A74007C33FF33994633E023783B4023704E4543
:102A840037DB63783B406370E6235B009E4237DBB1
:102A9400A3783B40A37087239B009E4237DBE378F7
:102AA4003B40E3709B239B009E4237DB23793B40F2
:102AB4002371AF239B009E4237DB63790A203B409E
:102AC400637101F00DFF002005F02CFDC3239B0072
:102AD400984501D1FFF7A5F901239C460136E0444E
:102AE400AE42C9D205F0AAFD0A2104F009FA303138
:102AF400217005F0A3FD0A2104F002FA303161705F
:102B040005F09CFD0A2104F0FBF93031A17005F0B9
:102B140095FD0A2104F0F4F93031E17005F08EFDE1
:102B24000A2104F0EDF93031217105F087FD0A2105
:102B340004F0E6F930310A20617101F0D1FE002081
:102B440005F0F0FCC8E75A46127C032A01D0531C56
:102B5400DBB25A4623701374FFF75BFA5B465B7C67
:102B6400013B5A1E93415A46DBB253746370FFF71C
:102B740050FA5B469B7C013B5A1E93415A46DBB29A
:102B84009374A370FFF745FA5B46DE89E1239B004B
:102B94009E427DD34C4B9C466644B6B2FFF724FA62
:102BA4005B46DE896421300004F0D2F989B25929E8
:102BB4006AD95A3EB6B2FFF717FA05F03FFD0A216B
:102BC40004F09EF930310520617101F089FE002086
:102BD40005F0A8FCFFF7EBFA05F030FD0A2104F03C
:102BE4008FF930316170272E01DCFFF7EFFA05F021
:102BF40025FD0A2104F084F93031A1703B2E01D85F
:102C0400FFF7CAFAFFF7E4FA05F018FD0A2104F009
:102C140077F93031E17005F011FD0A2104F070F903
:102C240030312171FFF7B2FA05F008FD0A2104F0F2
:102C340067F93031A17005F001FD0A2104F060F953
:102C44003031E170FFF7CDFA05F0F8FC0A2104F009
:102C540057F93031617005F0F1FC0A2104F050F9A4
:102C64003031A170FFF7B4FA05F0E8FC390004F044
:102C740047F93031A17005F0E1FC390004F040F966
:102C84003031E170FEF70BFE0A36B6B2FFF7ACF94D
:102C94006436B6B2FFF7A8F9093EB6B2FFF7A4F955
:102CA40005F0CCFC390004F02BF93031E17005F06B
:102CB400C5FC390004F024F930312171FEF7F8FD28
:102CC400829800208E9800207CFCFFFFF0B5874B93
:102CD4000F221E783100914311D0EF241039214284
:102CE40000D1F0E0824C65882D3507888149324057
:102CF400FF359200EF198D58ED19ADB20AE07C4C06
:102D04007C496788B6008D592D370288FF37ED1945
:102D1400AD18ADB2784A794F12682E1CBD4200D965
:102D24003E1C7240764D1204120C2A605E780F220B
:102D3400350095430FD0EF271D789543103D3D4254
:102D440000D1BCE04588A78832409200EF198D5825
:102D5400ED19ADB206E04588A788B600EF198D5984
:102D6400ED19ADB2674A654F12682E1CBD4200D9F9
:102D74003E1C7240644D1204120C2A609E780F228D
:102D84003500954310D0EF271D789543103D3D4203
:102D940000D1A0E0E5886435878832409200EF19BD
:102DA4008D58ED19ADB207E0E58887886435B60023
:102DB400EF198D59ED19ADB2544A504F12682E1CBB
:102DC400BD4200D93E1C7240514D1204120C2A60BF
:102DD400DE780F22350095430FD0EF271D789543F9
:102DE400103D3D4200D172E0C588278932409200EF
:102DF400EF198D58ED19ADB206E0C5882789B600E4
:102E0400EF198D59ED19ADB2424A3C4F12682E1C90
:102E1400BD4200D93E1C72403F4D1204120C2A6080
:102E24001E790F22350095430ED0EF271D78954368
:102E3400103D3D4256D00589678932409200EF1912
:102E44008D58ED19ADB206E005896789B600EF1912
:102E54008D59ED19ADB2314A284F12682E1CBD426E
:102E640000D93E1C72402E4D1204120C2A605E7969
:102E74000F253200AA4313D14289A389B600D3187F
:102E84008A59D21892B2274B1C481B68111C8242E3
:102E940000D9011C4B40244A1B041B0C1360F0BDD9
:102EA400EF221B78AB43103B134217D04289A3890E
:102EB4003540AD00D3184A59D21892B2E3E7A58839
:102EC4004788643540E70A4C658891350DE72589C4
:102ED400C78864358AE7E588C8355DE7A2894389F0
:102EE4006432E5E7658907896435A6E770960020B2
:102EF40080960020988800200C000540B80B000044
:102F04000C10054020000540201005403400054009
:102F14003410054048000540481005405C00054059
:102F24005C1005407000054070100540F0B50222A9
:102F3400DE4657464E464546C549C64B8C46E0B527
:102F44001A60C54A8021936A89B06344536104229C
:102F5400C24B49001A60C24A13680B42FCD0C14BF1
:102F640050689C460004000C0A21604403F0C8FF2A
:102F740083B29846BC4E05AC08AF05F079FBBB495B
:102F840003F0BEFFBA4B9C46604404F07FFE00F0A1
:102F940039FD051CF08904F079FE291C04F06FFE4C
:102FA40004F096FE404420800234A742E5D105A8EF
:102FB400FFF78CFEAF4B1B78012B23D0042B14D0CE
:102FC400052B0BD1AC4C2378052B00D134E1012B1C
:102FD40000D1CFE0002B01D0013B237009B0F0BC3D
:102FE400BB46B246A946A046F0BDA34C2278052AAA
:102FF40000D1B5E0012A00D1C8E0002AEED0013AA0
:103004002270EBE7337C012B30D0022B1ED0032B34
:10301400E4D19A4A1378002BE0D0994B1B78002B0B
:10302400DCD1984C984B216865790B400F212079AD
:10303400236008402940954D20712E786171192E26
:1030440000D9C5E0924FB600BE59B7468B4A1378F3
:10305400002BC3D08A4B1B78002BBFD18B490B7834
:10306400002B00D11CE1013B0B70B7E7834A1378B6
:10307400002BB3D0824B1B78002BAFD1834D2B7820
:10308400002B00D10CE1052603AF013B38002B7067
:1030940005F062F9BE570A21300003F031FF794C84
:1030A400C3B2237030000A21019303F029FF0626DE
:1030B400CAB26270BE570A213000934603F020FF63
:1030C400C2B2A27030000A21924603F019FF07260B
:1030D400CAB2E270BE570A213000914603F010FFD5
:1030E400C7B20A213000277103F00AFF2B780525A7
:1030F400684EED1A3078019BCAB2904662718342E1
:1031040004D00A21401903F0FBFE21707078834536
:1031140004D00A21401903F0F3FE6170B0788245AF
:1031240004D00A21401903F0EBFEA1704B46F0785D
:10313400834204D00A21401903F0E2FEE1703079A1
:10314400874204D00A21401903F0DAFE2171707914
:1031540080450BD00A21401903F0D2FE617105E0CD
:103164000A204D4A4749127823708854002005F0FC
:10317400D9F933E7494B06221978424804F05EFE38
:1031840000230020237005F0CDF927E7B37C328AB1
:103194003C4D6421AB702A80F689300003F0D8FEE0
:1031A4000A21E870300003F0D3FE0A21C0B203F014
:1031B400CFFE300029710A2103F0CAFE002300204B
:1031C4006971237005F0AEF908E71B0E2033E37034
:1031D400002005F0A7F92B7801332B70FEE610339D
:1031E4002370F5E71B041B0E20336370F0E71B0408
:1031F4001B0E10336370EBE71B021B0E2033A3700E
:10320400E6E71B021B0E1033A370E1E71B0E10331D
:10321400E370DDE720302071DAE710302071D7E762
:1032240020316171D4E710316171D1E7203323700B
:10323400CEE700231370CBE70A21174B114A1B7802
:103244000020D1540423237005F06CF9C6E6C0466F
:10325400409C0000347005400040054000E00440FC
:1032640000C004407017000080960020DC46030074
:1032740078ECFFFF8F9800207F9800208998002029
:1032840086980020709600200F0F0F0F8B98002057
:10329400FC870020F4970020829800208E9800205C
:1032A4000023052603AD2800137005F055F8AE572A
:1032B4000A21300003F024FE114C0A212070300052
:1032C40003F01EFE06266170AE570A21300003F09B
:1032D40017FE0A21A070300003F012FEE170ED79B0
:1032E4000A216DB2280003F00BFE0A212071280088
:1032F40003F006FE0020617105F014F96EE6C04685
:103304007096002070B582B0830766D10268824B44
:10331400017913400F2200936B46114019714179D2
:1033240044780A405A7102781978092940D87B48B0
:10333400C900411803C95D78092D05D8784EAD0040
:103344007559AF46774D29409D78092D05D8764E9D
:10335400AD007559AF46754D2940DD78092D05D866
:10336400734EAD007559AF462025A8431D79092D2C
:1033740005D8704EAD007559AF466F4D28405B7946
:10338400092B05D86D4D9B00EB589F466C4B18409C
:103394001209022A1FD0032A1AD0012A15D024099F
:1033A400022C0FD0032C0AD0012C05D002B070BD22
:1033B400012040420100BEE7624B1940F6E7624B30
:1033C4001940F3E7614B1940F0E7614B1940E6E718
:1033D400604B1940E3E79143E1E70F210C006B4692
:1033E4000D00027814401C70447825405D70857887
:1033F4000D409D70C5780D40DD70057940790D4014
:1034040001401D7159718FE7534B1840C0E74A4D75
:10341400294099E7514D294096E7514D294093E7BA
:10342400504D294090E7504D29408DE74F4D29409C
:103434008AE7494D294087E74D4D294084E74D4DA2
:10344400294081E74C4D294087E74C4D294084E7CA
:103454004B4D294081E74B4D29407EE749004908FF
:103464007BE70125A84378E70225A84375E7464D85
:10347400294072E7324D29406FE71025A84375E7CC
:103484004025A84372E78025A8436FE73F4D2840B5
:103494006CE72F4D284069E73D4D284066E73D4DD8
:1034A400284063E70425A84360E70825A8435DE7AF
:1034B400304D284063E71B4D284060E7274D2840E6
:1034C4005DE7274D28405AE7264D284057E71D4D14
:1034D400284054E7244D284051E7254D28404EE725
:1034E4001A4D28404BE7284B184051E7224B18400F
:1034F4004EE70E4B18404BE7204B184048E7204B53
:10350400184045E71F4B184042E7400040083FE79A
:10351400164B18403CE7C0460F0F0F0F9089002050
:10352400C8880020FFFFFEFFF0880020FFFFFFF7A0
:103534001889002040890020FF7FFFFF6889002050
:10354400FFFFFFFDFFFFDFFFFFDFDFFFFFDFFFFF09
:10355400FFFDFFFFFDFDFFFFFFFF7FFFFFFFFDFFFF
:10356400FFFFFBFFFFFFF7FFFFFFEFFFFFFFBFFFC3
:10357400FFEFFFFFFFBFFFFFFFFFFFFBFFFFFFEFBB
:10358400FFFFFFDFFFFFFFBFFFFFFFFEFFFEFFFFA9
:10359400FFFBFFFFFFF7FFFFF0B54646D6464F4659
:1035A4000400C0B5FFF7AEFEA37880460E001B09E9
:1035B400022B00D183E0032B00D1E4E0012B00D1E6
:1035C400DAE0D02308221B069A61063A9A61E3786E
:1035D4001B09022B00D17CE0032B00D1C5E0012B99
:1035E40000D1BBE0D02320221B069A6160329A618D
:1035F40023791B09022B00D176E0032B00D1A4E030
:10360400012B00D198E0D02380221B0692009A61FE
:10361400802212019A6163791B09022B00D170E0A8
:10362400032B00D17FE0012B00D173E0D023802253
:103634001B06D2019A61802212029A61D02580234E
:103644002D069B04AB61202300249946012717E033
:1036540080231B05AB610120002101F029F980239F
:10366400DB049A46012000216B6101F021F95346E5
:1036740001200021AB61013401F01AF9402C14D06F
:1036840020235B42E31808D43200DA4013003B42A3
:10369400DED080231B056B61DDE74B4632001B1B2C
:1036A4009A404346E3401343F1E7D02380221B06AC
:1036B40092045A61E0BCBA46B146A846F0BDD02295
:1036C4000821120691615361E3781B09022B00D093
:1036D40082E7D02320221B069A6160325A61237943
:1036E4001B09022B00D088E7D02380221B069200FE
:1036F4009A61802212015A6163791B09022B00D05E
:103704008EE7D02380221B06D2019A618022120206
:103714005A6193E7D02380221B06D2015A6180228A
:1037240012029A618AE7D02380221B06D2015A61D1
:10373400802212025A6181E7D02380221B06920064
:103744005A61802212019A6165E7D02380221B0608
:1037540092005A61802212015A615CE7D023202230
:103764001B065A6160329A6142E7D02320221B066D
:103774005A6160325A613BE7D02308221B065A6122
:10378400063A9A6123E7D02308221B065A61063AB7
:103794005A611CE7F0B5C64600B582B06B460C0012
:1037A400D91D80235B42034315000B70C046C046FD
:1037B400C046D02680273606BF02B761C046C04641
:1037C400C0460B4B01229846180005F003F82B0065
:1037D40022000021404605F023F8C046C046C046FA
:1037E4007761C046C046C04602B080BCB846F0BD52
:1037F40000C0034030B57F2383B06A460340137191
:103804005171C046C046C046D02480252406AD026E
:10381400A561C046C046C046022201A9054804F07D
:10382400D9FFC046C046C0466561C046C046C046D2
:1038340003B030BD00C00340F0B589B088236A46A8
:10384400D370C046C046C046D02580262D06B60299
:10385400AE61C046C046C0466B46394FD91C0122F2
:10386400380001AC04F0B6FF182322000021380010
:1038740004F0D6FFC046C046C0466E61C046C0468E
:10388400C046304B22881A8062882F4B1A80A28847
:103894002E4B1A80E2882E4B1A8022892D4B1A80D7
:1038A40062892D4B1A80A2892C4B1A80E2892C4BF9
:1038B4001A80228A2B4B1A80628A2B4B1A80A28A86
:1038C4002A4B1A80E28A2A4B1A80627E294B1A708C
:1038D400E1236A46D370C046C046C046AE61C046C6
:1038E400C046C0466B460122D91C380004F072FF62
:1038F400082322000021380004F092FFC046C0468D
:10390400C0466E61C046C046C0461B4B22881A8022
:10391400A2781A4B1A700F23E278217912010B4016
:103924001343174A13806379A2791B0912011343C5
:10393400144A1380E279144B1A7009B0F0BDC046E2
:1039440000C00340749800207698002078980020E6
:1039540062980020649800206698002068980020EF
:103964006A9800206C9800206E98002070980020BF
:1039740072980020839800205C980020849800208E
:103984005E9800206098002085980020402210B5A1
:1039940000211A4804F052FAFC22194B9205DA630A
:1039A400F82292059A63F42292055A63F022920552
:1039B4001A63EC229205DA62E82292059A62E42202
:1039C40092055A62E02292051A62DC229205DA61BB
:1039D400D82292059A61D42292055A61D022920586
:1039E4001A61CC229205DA60C82292059A60C42238
:1039F40092055A60C02292051A6010BD1C980020DE
:103A0400A0970020F8B5CE464746FE4D80B52B68FA
:103A14008046181C994604F093F902000B0000201C
:103A2400F94903F0D8FCF94C060020680F0004F0B3
:103A340087F902000B003000390003F0FCFC06009B
:103A44000F004046494604F01AF904F079F90200DF
:103A54000B003000390003F0C7FC03F0A5FD011C86
:103A64002060404604F0F4F8FC21890504F007F9CD
:103A74006B688046181C994604F062F902000B003A
:103A84000020E14903F0A7FC060060680F0004F081
:103A940057F902000B003000390003F0CCFC06009B
:103AA4000F004846414604F0EAF804F049F90200E0
:103AB4000B003000390003F097FC03F075FD011C86
:103AC4006060404604F0C4F8FC21890504F0D7F88E
:103AD400AB688046A068994604F032F9060048466F
:103AE4000F0004F02DF902000B000020C64903F07A
:103AF40072FC02000B003000390003F09CFC06004D
:103B04000F004046494604F0BAF804F019F90200DF
:103B14000B003000390003F067FC03F045FD011C85
:103B2400A060404604F094F8FC21890504F0A7F84D
:103B3400EB688046E068994604F002F906004846BE
:103B44000F0004F0FDF802000B000020AE4903F062
:103B540042FC02000B003000390003F06CFC06004C
:103B64000F004046494604F08AF804F0E9F80200E0
:103B74000B003000390003F037FC03F015FD011C85
:103B8400E060404604F064F8FC21890504F077F80D
:103B94002B6980462069994604F0D2F8060048460D
:103BA4000F0004F0CDF802000B000020964903F04A
:103BB40012FC02000B003000390003F03CFC06004C
:103BC4000F004046494604F05AF804F0B9F80200E0
:103BD4000B003000390003F007FC03F0E5FC011C86
:103BE4002061404604F034F8FC21890504F047F8CC
:103BF4006B6980466069994604F0A2F8060048465D
:103C04000F0004F09DF802000B0000207E4903F031
:103C1400E2FB02000B003000390003F00CFC06004C
:103C24000F004046494604F02AF804F089F80200DF
:103C34000B003000390003F0D7FB03F0B5FC011C86
:103C44006061404604F004F8FC21890504F017F88B
:103C5400AB698046A069994604F072F806004846AC
:103C64000F0004F06DF802000B000020664903F019
:103C7400B2FB02000B003000390003F0DCFB06004D
:103C84000F004046494603F0FAFF04F059F80200D9
:103C94000B003000390003F0A7FB03F085FC011C86
:103CA400A061404603F0D4FFFC21890503F0E7FF3F
:103CB400EB698046E069994604F042F806004846FC
:103CC4000F0004F03DF802000B0000204E4903F001
:103CD40082FB02000B003000390003F0ACFB06004D
:103CE4000F004046494603F0CAFF04F029F80200D9
:103CF4000B003000390003F077FB03F055FC011C86
:103D0400E061404603F0A4FFFC21890503F0B7FFFE
:103D14002B6A8046206A994604F012F80600484649
:103D24000F0004F00DF802000B000020364903F0E8
:103D340052FB02000B003000390003F07CFB06004C
:103D44000F004046494603F09AFF03F0F9FF0200D2
:103D54000B003000390003F047FB03F025FC011C85
:103D64002062404603F074FFFC21890503F087FFBD
:103D74006B6A8046606A994603F0E2FF0600484693
:103D84000F0003F0DDFF02000B0000201E4903F0CA
:103D940022FB02000B003000390003F04CFB06004C
:103DA4000F004046494603F06AFF03F0C9FF0200D2
:103DB4000B003000390003F017FB03F0F5FB011C86
:103DC4006062404603F044FFFC21890503F057FF7D
:103DD400AB6A8046A06A994603F0B2FF06004846E3
:103DE4000F0003F0ADFF02000B000020064903F0B2
:103DF400F2FA02000B003000390003F01CFB06004D
:103E04000F0005E0A09700200000F03F1C98002060
:103E14004046494603F033FF03F092FF02000B00D3
:103E24003000390003F0E0FA03F0BEFB011CA0628D
:103E3400404603F00DFFFC21890503F020FFEB6AE7
:103E44008046E06A994603F07BFF060048460F006F
:103E540003F076FF02000B0000207E4903F0BBFA5A
:103E640002000B003000390003F0E5FA06000F00F1
:103E74004046494603F003FF03F062FF02000B00D3
:103E84003000390003F0B0FA03F08EFB011CE0624D
:103E9400404603F0DDFEFC21890503F0F0FE2B6BA8
:103EA4008046206B994603F04BFF060048460F00FE
:103EB40003F046FF02000B000020664903F08BFA72
:103EC40002000B003000390003F0B5FA06000F00C1
:103ED4004046494603F0D3FE03F032FF02000B00D4
:103EE4003000390003F080FA03F05EFB011C20630C
:103EF400404603F0ADFEFC21890503F0C0FE6B6B68
:103F04008046606B994603F01BFF060048460F008D
:103F140003F016FF02000B0000204E4903F05BFA89
:103F240002000B003000390003F085FA06000F0090
:103F34004046494603F0A3FE03F002FF02000B00D3
:103F44003000390003F050FA03F02EFB011C6063CB
:103F5400404603F07DFEFC21890503F090FEAB6B27
:103F64008046A06B994603F0EBFE060048460F001E
:103F740003F0E6FE02000B000020364903F02BFAA2
:103F840002000B003000390003F055FA06000F0060
:103F94004046494603F073FE03F0D2FE02000B00D4
:103FA4003000390003F020FA03F0FEFA011CA0638C
:103FB400404603F04DFEFC21890503F060FE804677
:103FC400E06B03F0BDFEED6B0600281C0F0003F050
:103FD400B7FE02000B0000201E4903F0FCF90200AA
:103FE4000B003000390003F026FA0F0006004146AA
:103FF400281C03F044FE03F0A3FE02000B00300073
:10400400390003F0F1F903F0CFFA4146E06303F01D
:104014001FFEFC21890503F032FE03F091FE00220D
:104024000D4B03F008FA0D4E040030680D0003F048
:1040340087FE00220A4B03F0FEF902000B00200069
:10404400290003F0D1F903F0AFFA3060C0BCB946DF
:10405400B046F8BD0000F03F0000E83F049800209F
:104064000000D03F70B58021040080204901000386
:1040740004F030FC8022802021000003520004F070
:1040840069FC084B80201D68002600234000E15C89
:10409400EA5C914200D0012601338342F7D101202A
:1040A400704070BDDC8C00208021002310B5044CCE
:1040B40049002268D25CC25401338B42F9D110BD4D
:1040C400DC8C0020094A830094464022634410B5E6
:1040D4001C68C0006240C024144080225201134373
:1040E4001C60034B9C466044416010BD04C0014009
:1040F400004001400A4B80009C4604236044002990
:1041040001D00C230821002A00D10B00026853407F
:104114000C221A4080235B01184302607047C0469A
:1041240004C00140084B80009C466044002905D02F
:1041340080239B011843402303607047C0239B01E5
:10414400184340230360F8E704C001400123D02250
:104154008340120693629361094A83009446402285
:1041640063441968C0004A40C021114080225201B2
:1041740013431960034B9C46052360444360704716
:1041840004C001400040014070B5EFF3108C72B6DA
:104194000D4D2B68002BFCD0BFF35F8F0724CB0899
:1041A400C618C05C01230C40A3401C000440034219
:1041B40007D103433370BFF35F8F2C608CF31088F7
:1041C40070BD100000F06EFF2C0100D0024B186887
:1041D4008007C00F7047C04600C006400021044B52
:1041E400044ABFF35F8F02C39342FAD17047C046BB
:1041F400000100D0800100D0044A1078431CDBB2D7
:10420400172B00D9102313707047C046E08C002090
:10421400F8B5040006200D0001F04AF9002844D046
:104224002A4B2B49E21853425A418023DB039C4614
:104234009205284B62441A60274B1A6010008B6861
:104244009843FBD1214B8021E3185A425341234A1E
:104254005B0049009952062001F02AF92900C000A8
:1042640002F076FEC30921D14027012126008025D2
:104274006162A36200232C36AD0135432B60062016
:1042840001F016F93900800002F062FE6023E26A50
:1042940053406E221A4080235B0133431A60104B53
:1042A400236310232B600D3BA364F8BD0D4A934296
:1042B40003D900230C4F0D49D8E77F221040013069
:1042C40040089F0119003F180300CFE70080FCBF9E
:1042D40000C0004000E0004000F0004018980020BA
:1042E40001030000FEFF0000C0FF3F00FFFF0000CD
:1042F40070B5040006200D0001F0DAF82900C000B2
:1043040002F026FEC30906D0104A934215D90023B1
:104314000F4D104A01E04025012280206262A36211
:10432400002380012C3404432360062001F0C0F8EC
:104334002900800002F00CFE70BD7F221040013085
:1043440040089D011A002D180300E6E7FEFF000057
:10435400C0FF3F00FFFF000083680B4810B5844690
:1043640061446244090112019A18591854684B684F
:1043740001209C4201D802D00020C0B210BD1268B6
:104384000B689A42F9D8F7E7FFFFFF0F0A4B196849
:10439400EFF3108072B60A68002AFCD0BFF35F8F77
:1043A4001B68BFF35F8F00221A6080F3108840BF40
:1043B400002000217047C04600980020F8B55746F9
:1043C4004E464546DE46E0B599460CAB1C780DAB2F
:1043D4001B78060090469A460768002C11D1BC7BD6
:1043E400002C42D065003B682D19033D59194B78C8
:1043F400BB73002B00D1FB7300238B704B700B70CD
:1044040004E065003B682D19033D5919B2682A4B35
:1044140094464246E3181B0163441A604A465A60B4
:104424000A9A9A600B9ADA6000238B704B700B70B7
:104434007B7B9B46002B2BD022005946B8687B68B7
:1044440098473A68002816D05B4658465B005B44A0
:104454005519033BA870D118D35C002B00D06B70A6
:104464005B460C707B73A34513D0F0BCBB46B246CD
:10447400A946A046F8BD5B465B005B44033BD318EA
:104484009C705119525D002A00D05A705B460B7023
:104494007C7342464B46307D00F006FB051E06D079
:1044A4005346002B03D12100306800F043FD0E9BDE
:1044B400002BDAD01D70D8E7FFFFFF0FF0B5DE4602
:1044C4004E46574645460023E0B58DB00A936B4BE4
:1044D4008200D3580B90994600239B464B46079382
:1044E40000F082FA079C06000F006268EFF3108563
:1044F40072B61368002BFCD022000794BFF35F8FC1
:104504002468637B9946002B67D092685C4B904685
:104514004B441B01984443461A685B681000190019
:10452400801BB94100295FDD0B9800F0BDFA002320
:104534000026984600279A46079C6368BFF35F8F5E
:104544005A461A6085F310885346002B08D1002878
:10455400C6D10DB0F0BCBB46B246A946A046F0BDDC
:104564000A9B414618024B461843D04708900991CC
:104574006268EFF3108572B61368002BFCD00794C1
:10458400BFF35F8F0899099A002A48DB114303D0CF
:10459400079B1B69002B5DD1079B1B68D97B0029F6
:1045A40007D04A00521819688C4649466244033AB7
:1045B40051704A46DA734B46079A013BD168CA5C8C
:1045C4000132CA545B46079A13615368BFF35F8F85
:1045D4005A461A6085F3108882E70023002698461D
:1045E40000279A460020A7E7002901D100289BD183
:1045F4000021200000F020FC43461E685F689B6891
:10460400079A9A464346DB689846D3684B44013B75
:104614001B780A931B020343136100208CE7236970
:10462400002BB9D033003C005B1A94411A002300DC
:10463400A74219D89F421BD05946049101210391E6
:104644004946029141460191514607980091FFF76E
:10465400B5FEB7E700F0C8F9089A099B06000F00F9
:1046640092197B419942E5D901225242D317E3E7DB
:104674009642E1D901225242D317DDE7E4970020A4
:10468400FFFFFF0FF8B557464E464546DE46E0B5F8
:10469400404D81468A466A68EFF3108872B6136803
:1046A400002BFCD0BFF35F8F2E68B47B002C39D075
:1046B400670033683F19033FDB195A78B273002A45
:1046C40000D1F273A968344A8C464946A2181201F3
:1046D4006244116051465160304991600021D160BB
:1046E400997059701970737B9B46002B35D022004A
:1046F4001900B068736898473268002820D05B4678
:1047040058465B005B44D719033BB870D118D35C9F
:10471400002B00D07B705B460C7073735C451DD01E
:10472400002626E06B68BFF35F8F1C6088F3108857
:1047340001204042F0BCBB46B246A946A046F8BDA3
:104744005B465B005B44033BD3189C70D119D25D7C
:10475400002A00D05A705B460B7074734A46534665
:10476400287D00F0A1F9061EDAD02100286800F0A7
:10477400E1FBEB681B19013B19786B68BFF35F8F92
:1047840000221A6088F310880020002ED2D108027B
:104794002043CFE7E48C0020FFFFFF0F4D410020B2
:1047A40010B5124C6368002B04D00A21104800F0A5
:1047B40009FA10BD23000F4A1021206800F05AFAAC
:1047C400032000F005F9032000F0DEF903200A4974
:1047D40000F024F9FFF710FD084B9C4603236044C6
:1047E4002375074B80006060DC60DEE7E48C00200A
:1047F40000980020194100207D4200204000003430
:10480400E4970020F0B504000D0006267642F71761
:10481400C64636196F4100B58F4213D810D000F048
:10482400E3F832003B00121A8B41002B14DC002BFE
:1048340037D02900200000F0E1F880BCB846F0BD74
:104844008642ECD90026002700F0CEF832003B0067
:10485400121A8B41002BEADD30003900FFF712FFFA
:104864000028E6DB00239846BC460F4A0F4F7B6ABC
:104874009C4504D8B96A8E42DBD99C45D9D11168CC
:10488400EFF3108072B60B68002BFCD0BFF35F8F80
:104894001368BFF35F8F4146196080F3108820BF0F
:1048A400E5E7002AC5D0D7E700980020004005407E
:1048B40070B504000D0000F097F802000B00200012
:1048C4002900801859418B4205D802D0FFF79AFF7E
:1048D40070BD8242FAD901204042C117F6E7C046B2
:1048E40070B5060000F080F8FA2204000D000023E1
:1048F40030000021920003F08BF9001969418D42C8
:1049040005D802D0FFF77EFF70BD8442FAD901209A
:104914004042C117F6E7C046F0B5D6464F46464674
:10492400C0B5EFF305833F22134018001038EFF3AE
:10493400108C72B6204D2A68002AFCD0BFF35F8F1A
:104944000122110081401D4C884661631C491700F7
:104954000E788A463100C1400F400A4209D1BFF3A4
:104964005F8F2F608CF31088E0BCBA46B146A8462E
:10497400F0BD14498200646A51588C420FD3124B23
:10498400D25843469E4353461E70BFF35F8F0023A5
:104994002B608CF31088002AE6D09047E4E70B4A9A
:1049A4009B00904643441A681A60BFF35F8F00234C
:1049B4002B608CF31088D7E7280100D00040054015
:1049C4009098002008980020F8940020D03F0540DB
:1049D40010B50100024A0348FFF7D6FB10BDC046DC
:1049E400E089002081980020034B596A0A00986AE4
:1049F400596A8A42FAD1704700400540064A536A10
:104A04009942FCD807D1044B02E05A6A914202D180
:104A14009A6A8242F9D370470040054070B5040099
:104A24000D00EFF3108672B61A4A1368002BFCD0FF
:104A3400BFF35F8F002D1BD0200000F05DFD1649F1
:104A440081420AD0200000F05FFD0121200000F027
:104A540035FD0123A340114A1360114BA400E55016
:104A6400BFF35F8F00220B4B1A6086F3108870BD72
:104A74000B4BA200D5500122A2400A4920000B781A
:104A840093430B70044900F069FD0021200000F0FD
:104A940015FDE5E7280100D0D9460020386005401F
:104AA400F894002090980020F0B54F46D64646462C
:104AB400C0B507002F4C616A0D00A66A616AA9425D
:104AC400FAD18B4208D805D00120E0BCBA46B146E1
:104AD400A846F0BDB242F7D9EFF3108A72B6264861
:104AE40001680029FCD0BFF35F8F0125BD40234935
:104AF400204C8846097889462943C9B28C464146E8
:104B040060460870391D1E48890065630A51B90062
:104B14000B50216A0020294219D0616A0800A66A54
:104B2400616A8142FAD18B4219D801D1B24216D8B6
:104B3400CC451DD00F4B1F201D625D630123074030
:104B4400BB40104A1E38136043464A461A70BFF3EE
:104B54005F8F0022084B1A608AF31088B5E70020A3
:104B6400BFF35F8F0022044B1A608AF31088ACE70E
:104B74000120ECE700400540280100D09098002077
:104B84000898002080E200E0EFF3108C72B60A4926
:104B94000B68002BFCD0BFF35F8F01238340074ACF
:104BA4000748136202789A430270BFF35F8F0023B1
:104BB4000B608CF310887047280100D0004005403A
:104BC40090980020024B9C46614489000160704724
:104BD4004000003410B50400FFF70EFB0100200074
:104BE400FFF7F0FFFF232371BFF35F8F10BDC046B3
:104BF40010B50400FFF700FB01002000FFF7E2FFFF
:104C0400FF23A380BFF35F8F10BDC04670B50500BE
:104C140014001600002915D00C00002A12D0806858
:104C24006B689847296800280ED073009B196200AE
:104C3400033B1219CB18033A9C7088188A5C002A2B
:104C440015D10670200070BD63001B197200033B70
:104C54009219CB18033A9E7088188A5C002A02D1F4
:104C640004703400EEE75A7004703400EAE75A70B6
:104C74000670E7E730B583600023CCB24373013399
:104C8400047342608373C4730D000068012C06D959
:104C9400421C0133DBB2137003329C42F9D1FF2171
:104CA40029404B005918002340180338437030BD85
:104CB400F8B5CE46474606000C0080B5002907D05B
:104CC4004D0003686D18033D5A195778002F04D11D
:104CD4002000C0BCB946B046F8BD7900C9190339F3
:104CE4008846434459788946002159705170736845
:104CF4003A002100806898473368002814D042465F
:104D04009A18947059195B5D002B00D053700F7082
:104D1400270049463000FFF7CBFF3900020030007E
:104D2400FFF774FF0400D3E7424641465D19AF70B4
:104D34009A185B5C002B00D06B701470E9E7C046D6
:104D4400F0B557464546DE464E46E0B50D006B00CD
:104D540001685B19DF1E0400C85D83B00192CA19A3
:104D640000284CD043001B18033BCB185E78B44694
:104D7400002E16D1019E002E3ED0E67B002E04D0DC
:104D840073009B19CB18033B5D70E57300282FD18A
:104D94000023537003B0F0BCBB46B246A946A046FC
:104DA400F0BD72006244033A89184A7890460022A2
:104DB4004A7091465A70010032002000FFF726FF26
:104DC40043468246002B07D05B0021684344033BE3
:104DD400CB185A78002A16D1424651462000FFF7D4
:104DE40015FF2168019BCA19002BC6D10028CFD01A
:104DF40043001B18033BCB1800219970C8E7019BA3
:104E0400002BBAD1C4E75000801803380918487839
:104E1400834648464870587041462000FFF7F6FE26
:104E2400594680462000FFF743FF41460200200018
:104E3400FFF7ECFE8046CFE7F0B557464546DE4621
:104E44004E46E0B583B00191457B04006B000068D9
:104E54005B19DF1EC15DC21900294ED04B005B18DF
:104E6400033BC3185E78B446002E18D1019E002E71
:104E740040D0E67B002E04D073009B19C318033B7B
:104E84005D70E573002931D10023280053706173EC
:104E940003B0F0BCBB46B246A946A046F0BD7200C2
:104EA4006244033A80184278904600224270914648
:104EB4005A7020003200FFF7A9FE43468246002BB9
:104EC40007D05B0021684344033BCB185A78002A7F
:104ED40017D1424651462000FFF798FE019B01007E
:104EE4002068C219002BC4D10029CDD04B005B1817
:104EF400033BC31800209870C6E7019B002BB8D170
:104F0400C2E7500080180338091848788346484699
:104F14004870587041462000FFF778FE5946804695
:104F24002000FFF7C5FE414602002000FFF76EFE99
:104F34008046CEE770B5040000292CD0437B8B4219
:104F44002ED0056848004018033828188278002AB3
:104F540021D053009B18033BEA5CEE188A4202D12D
:104F64001BE0002A08D053009B18033BEB185A7827
:104F74008A42F6D142785A7000230122837043702A
:104F84002000FFF7DDFE617B02002000FFF73EFEFC
:104F94006073012000E0002070BD43783370EBE7BC
:104FA40001221900FFF7CCFE60730120F4E7C0462C
:104FB4002C4B2D4A70B51A602C4A2D4B2D491A6082
:104FC40014008B689C43FBD12B4D2C4EB54208D268
:104FD400013E761BB60808CD984723000134B3423E
:104FE400F9D100F007F9264A214B1A60214A936847
:104FF400DB43DB01DD09002BF9D14022214B224C9C
:10500400224E9A675A671A67DA66B44208D223684E
:105014002000002B20D00834FFF7EAFDB442F6D379
:105024001B4E1C4CC022A168300002F00DFFA6608C
:10503400FFF7D4F800F0C6FBFFF7B2FB164C174E8F
:10504400B44208D2013E361BB60808CC98472B0060
:1050540001359E42F9D170BD0834FFF7BBFDB4425F
:10506400D5D3DDE700E00040BFCDFBFEFE7F3C0072
:1050740000F0004000C00040C0910020D09100200A
:10508400FFFFFF0100F00140B0910020C09100201B
:105094000000002000ED00E0D0910020D491002019
:1050A40000BEFDE70FB400B5084883B003F002F872
:1050B400049B002B07D005A91800019101F0CEFE36
:1050C400034802F0F7FF00BEFDE7C046048A002053
:1050D400148A002010B50148FFF7E4FF188A002065
:1050E400F0B54546DE4657464E46E0B583B00192DC
:1050F4000C9A050088469A4200D974E01A0E934629
:105104001E023000002359460C9A01F063FF374B0E
:105114006C009C466419A4006444636807008342DD
:1051240000D260602B1FDBB29946012B35D9C02316
:1051340080229B01234312011A602D4BAD00595963
:105144009A46002905D0586901F002FF0130013860
:10515400FDD1019A236852015340E0221A40802372
:105164005B0123431A604A46012A2FD980238022F7
:105174009B01234312011A60300000233A00594670
:10518400676001F027FF53465851012003B0F0BC7B
:10519400BB46B246A946A046F0BD4346012BC6D144
:1051A400C02303229B0123431A60023AA3681A42D4
:1051B400FCD0019A236852015A40E0231A4080230C
:1051C4005B0123431A600A4AAD00924642462168B5
:1051D400514003220A401A60012243469A40A368C0
:1051E4001A42FCD0C2E70020D0E7C046008000404D
:1051F4000896002030B50C2083B000F049FBFEF780
:10520400E5FF00280ED0944B944A1A605A609A60C5
:10521400DA601A615A619A61DA611A62904A5A62D2
:1052240003B030BD8F4CA06700F03AFB01228E4BD7
:105234001A60636C012BFCD103228C4B1A60894ADF
:10524400936B012BFCD102240121894A894805333F
:10525400009400F0C9FA0523874A01218748009485
:1052640000F0C2FA864B5A68FF2A02D88022520004
:105274005A608022784C7D4B21691201804D1A605E
:10528400002905D0606901F063FE01300138FDD1C9
:10529400E0217B4B02201A681140802252012A43EC
:1052A40011601968484003210140116004219A6883
:1052B4001142FCD08022802192012A43090111600D
:1052C400802252005A606F4B23616F4B5968FF294B
:1052D40000D85A600321644A6B4B116002399A6802
:1052E4001142FCD0E0201A681040802252011A4377
:1052F400106018684840032101400220116062498F
:105304008A681042FCD08022920113438022120149
:105314001A6080225D4B52004A6063615C4B59689D
:10532400FF2900D85A6080225A4BE1691201584D76
:105334001A60002905D0606901F00AFE01300138C5
:10534400FDD1E02252490B681A4080235B012B43B4
:105354001A60802380229B012B4312011A60802251
:105364003E4B52004A60E3614B4B5968FF2900D819
:105374005A608022494B216A1201474D1A60002964
:1053840005D0606901F0E4FD01300138FDD1E0226F
:1053940041490B681A4080235B012B431A60802328
:1053A40080229B012B4312011A60802380225B0020
:1053B4004B602A4BD2022362394B5968914200D286
:1053C4005A608022374B616A1201354D1A600029F8
:1053D40005D0606901F0BCFD01300138FDD1E02247
:1053E4002F490B681A4080235B012B431A608023EA
:1053F40080229B012B4312011A608023DB024B6045
:10540400174B6362284B5A68FF2A02D88022520045
:105414005A608022254BA1691201234D1A6000298C
:1054240005D0606901F094FD01300138FDD1E0221E
:105434001D490B681A4080235B012B431A608023AB
:1054440080229B012B4312011A6080235B004B6076
:105454000E4BA361E4E6C04608960020006CDC0213
:105464001BB70000008000403CB0004030B000405A
:10547400002F68590080024000389C1C00C0024084
:1054840030800040001BB7003C8000404059730747
:105494005480004054B000406080004060B0004040
:1054A4006C8000406CB000404880004048B0004030
:1054B400014B8000C05870470896002001238340A8
:1054C400002904D0034A1360034A13607047034A57
:1054D4001360FBE780E200E000E100E080E100E02F
:1054E40001228240034B1B6813405A1E9341D8B2D9
:1054F4007047C04600E100E0024B10309B6880001A
:10550400C058704700ED00E070B50D00EFF3108651
:1055140072B60F4A1368002BFCD0BFF35F8F0D4B9C
:1055240010309B6884001B590B4A934203D09D4260
:1055340001D0FFF7CFFD074B9B681D51BFF35F8F71
:10554400BFF35F8F0022024B1A6086F3108870BD90
:10555400240100D000ED00E0CD010010F0B5DE46DE
:1055640057464E464546E0B50C0083B0EFF3108A2B
:1055740072B65A4A1368002BFCD0BFF35F8F102217
:10558400914681444A46564B96009B689D59554B1B
:1055940098469D4205D0A54216D0534FEB1B2F2BA6
:1055A40014D94F4B9B689D51BFF35F8FBFF35F8F3F
:1055B40000224A4B1A608AF3108803B0F0BCBB4641
:1055C400B246A946A046F0BD1D00EAE70123834088
:1055D4009B465A46454B1B681A4000925A46444B18
:1055E4001A60BFF35F8F03F08FF80190002803D097
:1055F400814501D0FFF76EFD01232A009A43130071
:105604003C49DB1B5B415943090D93689C4208D11B
:105614005AE043001B189B00FB189868A04211D065
:105624001A00062010560028F3DA009B002B05D040
:105634005A46314B1A602D4B1A60B2E75A462C4B2E
:105644001A60AEE706201856002821DB4200111824
:1056540089007C188846A1689960E179D97106218E
:105664006156997100291FDBA488F91A6405241571
:1056740044440919E0240905490D24022143998071
:1056840012181E4B9200BF181A781870BA71CCE722
:10569400019800280BD1FF30907119489080174A67
:1056A400107811709871C0E7BD210902E7E7154A27
:1056B4001549D21A083A5002400D01439980134902
:1056C40052080A43DA80B0E7062010561300002877
:1056D400BCDA019A002AEAD14546E0E7240100D069
:1056E40000ED00E0CD0100100C8D002000E100E091
:1056F40080E100E0AAAA000080E200E08D9800208A
:1057040000BDFFFF468D002000F0FFFF00F8FFFF03
:10571400F8B501250400054302F0F6FFEFF3108C01
:1057240072B6214A1368002BFCD0BFF35F8F1F4E63
:105734002100B7681E4A1F4B891A49414B431B0D70
:1057440059B28300F858A8421CD00623D3568B4282
:105754001CD01223D3568B4222D01E23D3568B4205
:1057640020D02A23D35603208B4210D0124B1A7810
:105774001970A271BFF35F8F00220B4B1A608CF378
:105784001088F8BDB2680D48D050EFE70020430000
:105794001B189B00D218FF239371094B9380E5E7F4
:1057A4000120F4E70220F2E7240100D000ED00E03C
:1057B4000C8D0020AAAA00008D980020CD010010B5
:1057C40000BDFFFF054B064A1360064A1360536091
:1057D4009360D360136153619361704780808080CC
:1057E40000E400E004E400E0F0B5C646040000B5BF
:1057F4000C2090461F000E0001F0AAFB4101091A7B
:105804008D01691AC90009188901404601F0A0FBFD
:10581400069B3F041A0323681743002B22DB184B13
:10582400184DE21853425A4180235B019C461203EF
:10583400154B62441A60154B1A601100AB6899430A
:10584400FBD1C022231D92011A4321232660A060AC
:1058540013602368002BFCDA0823E760136080BC24
:10586400B846F0BD3F2322681340B342D7D1A368A2
:105874001B051B0D8342D2D1E368002FCFD1EEE785
:105884000040FDBF00C0004000E0004000F00040C8
:105894008023024A9B000343D36270470080054083
:1058A400AA23064A1B0113602F230549D360054B25
:1058B40019605368002BFCDA7047C0460040024070
:1058C40000B0FA00006002409A4200D28854704747
:1058D4007047C046F8B557464E464546DE46E0B5E5
:1058E40099460A9B07009A460D9B884693461500E5
:1058F4000B9E9B0710D10C9B9E420DD29D1B140046
:105904000E005D4422004B46013431002020B8478C
:10591400A542F7D1B0460B9E002E27D044467519F8
:105924005346AA1B013E985D21004B46B847002E02
:10593400F6D123002C0098460D9B9B070FD55B46A0
:10594400E51A0C9BAB420AD94646984622004B46C0
:10595400310020200135B8470134A845F6D820008D
:10596400F0BCBB46B246A946A046F8BD2C00E3E70E
:10597400F0B54F464646D646C0B584B098460EAB01
:105984001B78129F994694460D9C109B119EBA0752
:1059940025D4002E4BD19C4200D3BFE001223A40D3
:1059A40092461F2C00D9B8E00C9A551E302201E013
:1059B400202C03D001342A55A342F9D85246002A98
:1059C4000DD0A6420BD9202C44D00C9A551E30225F
:1059D40001E0202C3ED001342A55B442F9D1FA0614
:1059E4004DD57A053FD4002C39D10F9B102B00D113
:1059F40079E00F9B022B00D18AE030230C9A01241A
:105A040013704B46002B3FD02D230C9A13550134B1
:105A14000C9B624600930397434602960194FFF75A
:105A240059FF04B0E0BCBA46B146A846F0BD012215
:105A340015003D40AA463A422FD04A46002A02D1D8
:105A44000C323A4200D0013E9C42BAD21F2CABD950
:105A5400202E27D92024FA06DAD57A0503D4A342C6
:105A64002DD0A6422BD00F9B102B32D0022B20D04E
:105A7400202CCDD030220C9B1B191A700134202C01
:105A8400C6D04B46002BBFD17B070DD43B07BFD5F7
:105A940020230C9A13550134BAE79C429FD21F2C41
:105AA40000D881E720249AE72B230C9A135501345C
:105AB400AEE7202CACD00C9B1B1901343AE0631EDA
:105AC400012C92D00F9A102A2AD0022A2FD01C001F
